:020000040800F2
:10000000000003207DA700086B6600086D660008ED
:100010006F66000871660008736600080000000043
:1000200000000000000000000000000091A4000893
:10003000756600080000000031A5000831A0000826
:10004000D1A70008D1A70008D1A70008D1A70008B0
:10005000D1A70008D1A70008D1A70008D1A70008A0
:10006000D1A70008D1A70008D1A70008D1A7000890
:10007000D1A70008D1A70008D1A70008D1A7000880
:10008000D1A70008D1A70008D1A70008D1A7000870
:10009000D1A70008D1A70008D1A70008D1A7000860
:1000A000D1A7000879660008D1A70008D1A70008E9
:1000B000D1A70008D1A70008D1A70008D1A7000840
:1000C000D1A70008D1A70008D1A70008D1A7000830
:1000D00089660008D1A70008D1A70008D1A70008A9
:1000E000D1A70008D1A70008D1A70008D1A7000810
:1000F000D1A70008D1A70008D1A70008D1A7000800
:10010000D1A70008D1A70008D1A70008D1A70008EF
:10011000D1A70008D1A70008D1A70008D1A70008DF
:10012000D1A70008D1A70008D1A70008D1A70008CF
:0C013000D1A70008D1A70008D1A7000843
:100140000348044B834202D0034B03B11847704766
:100150000C0300200C0300200000000005480649A5
:10016000091A891001EBD171491002D0034B03B178
:10017000184770470C0300200C030020000000000B
:1001800010B5064C237843B9FFF7DAFF044B13B1DF
:100190000448AFF300800123237010BD0C0300203E
:1001A000000000003C52010808B5044B1BB1044993
:1001B0000448AFF30080BDE80840CFE7000000002E
:1001C000100300203C52010808B5062001F0CCFBCA
:1001D000012004F0F3FA00BF014B1868704700BF1C
:1001E000080000200CB400B583B004AB53F8042B16
:1001F000019300F0E5FA03B05DF804EB02B070473C
:100200000EB410B583B005AB064C53F8042B019324
:100210000146206800F0D4FA03B0BDE8104003B0F6
:10022000704700BF0800002010B5044608B183697C
:100230002BB161682046BDE8104003F06FB902F0B1
:1002400079FF61682046BDE8104003F067B900BF40
:100250000A4B10B51C680CB1A3692BB1616820462C
:10026000BDE8104003F05AB9204602F063FF616810
:100270002046BDE8104003F051B900BF080000203F
:1002800070B50D4E0D4D761BB61006D0002401340E
:1002900055F8043B9847A642F9D1094E094D761B03
:1002A00014F0CCFFB61006D00024013455F8043BFE
:1002B0009847A642F9D170BD5465020854650208FA
:1002C0005865020854650208024B0146186800F0A0
:1002D000CFB900BF08000020024B0146186800F0AB
:1002E00071B900BF080000200000000000000000FD
:1002F00001F0FF01102A2BDB10F0070F08D010F8D7
:10030000013B013A8B422DD010F0070F42B3F6D1DA
:10031000F0B441EA012141EA014122F007047FF0F3
:1003200000070023F0E80256083C85EA010586EA4A
:10033000010685FA47F5A3FA87F586FA47F6A5FA86
:1003400087F68EB9EED1F0BC01F0FF0102F0070292
:1003500032B110F8013B013A83EA010313B1F8D13D
:100360000020704701387047002D06BF354603381E
:10037000073815F0010F07D1013015F4807F02BF57
:10038000013015F4C03F0130F0BC0138704700BFA8
:10039000032A70B412D940EA0105AD0704460B46A2
:1003A00020D11946204653F8045B54F8046BAE4242
:1003B00018D1043A032A20461946F2D8541E72B1C5
:1003C00003780A789A4208BF241806D00CE010F887
:1003D000013F11F8012F934206D1A042F7D100202E
:1003E00070BC7047541EEBE7981A70BC704700BF92
:1003F000844641EA000313F003036DD1403A41D330
:1004000051F8043B40F8043B51F8043B40F8043BEE
:1004100051F8043B40F8043B51F8043B40F8043BDE
:1004200051F8043B40F8043B51F8043B40F8043BCE
:1004300051F8043B40F8043B51F8043B40F8043BBE
:1004400051F8043B40F8043B51F8043B40F8043BAE
:1004500051F8043B40F8043B51F8043B40F8043B9E
:1004600051F8043B40F8043B51F8043B40F8043B8E
:1004700051F8043B40F8043B51F8043B40F8043B7E
:10048000403ABDD2303211D351F8043B40F8043B1E
:1004900051F8043B40F8043B51F8043B40F8043B5E
:1004A00051F8043B40F8043B103AEDD20C3205D32E
:1004B00051F8043B40F8043B043AF9D2043208D026
:1004C000D2071CBF11F8013B00F8013B01D30B8898
:1004D00003806046704700BF082A13D38B078DD076
:1004E00010F003038AD0C3F10403D21ADB071CBF48
:1004F00011F8013B00F8013B80D331F8023B20F8B2
:10050000023B7BE7043AD9D3013A11F8013B00F8EA
:10051000013BF9D20B7803704B7843708B78837072
:1005200060467047F0B4860746D0541E002A3CD07F
:10053000CAB2034602E014F1FF3436D303F8012BAC
:100540009D07F8D1032C29D9CDB245EA05250F2CFA
:1005500045EA054533D9A4F11006360903F1200711
:1005600007EB061703F1100242E9045542E9025570
:100570001032BA42F8D1721C14F00C0F03EB0212C5
:1005800004F00F0613D0331F23F003030433134486
:1005900042F8045B9342FBD106F003042CB1C9B2CC
:1005A0001C4403F8011B9C42FBD1F0BC704734464D
:1005B0001346002CF3D1F8E714460346C2E71A4667
:1005C0002646E0E700293CD038B551F8043C0C1F22
:1005D000002BB8BFE418054603F0F8F8234B1A685F
:1005E0002AB1A2420DD921686018824223D06260EC
:1005F00028461C60BDE8384003F0EAB8A34203D89F
:100600001A465368002BF9D111685018A04219D02E
:1006100024D821686018834206D06360546028465D
:10062000BDE8384003F0D4B8D3E900030144636067
:1006300021605460F3E7D2E9000201446260216066
:10064000D6E7704720680144501883421160E6D114
:10065000D3E90003014453601160E0E70C232B60F1
:100660002846BDE8384003F0B3B800BF2803002097
:10067000F8B5CD1C25F0030508350C2D38BF0C2529
:10068000002D064633DBA94231D82A4F03F09EF8ED
:100690003A6852B113685B1B04D43FE023685B1BCC
:1006A00029D522465468002CF8D1796800293BD01E
:1006B0002946304601F004F8431C28D0C41C24F01D
:1006C0000304A04205D0211A304600F0F9FF0130A2
:1006D0001DD02560304603F07BF804F10B0020F0BC
:1006E0000700231DC21A01D01B1AA350F8BD0C220B
:1006F00032600020F8BD0B2B05D8A242636811D0F0
:100700005360E7E7144623601C442560E2E70C23AE
:100710003046336003F05CF80020F8BD0B2BF1D8B5
:10072000536814463B60D5E7304600F0C9FF786057
:10073000BEE700BF280300209368013B002B9360B5
:1007400011DA10B49469A34209DB0A2907D01368AF
:10075000581C1060197008465DF8044B70475DF82E
:10076000044B01F047BA1368581C10601970084612
:10077000704700BF9BB1F8B513440F4606465D1E97
:10078000541E01E0AC4208D03A4614F8011F30462E
:10079000FFF7D2FF431CF5D1F8BD0020F8BD0020C3
:1007A000704700BF936810B5144613B953601846DC
:1007B00010BD02F0DFFC0023C4E9013310BD00BF0F
:1007C0002DE9F04F9FB08B4690461C46039018B120
:1007D0008369002B00F0B780A24B9B4500F0B980E5
:1007E000A14B9B4500F0C780A04B9B4504BF039BDA
:1007F000D3F80CB0BBF80C30180740F1B280DBF82E
:100800001030002B00F0AD8030238DF8323098F896
:1008100000300594002120220B918DF83120944E58
:100820000127002B00F08780252B00F0158145461D
:1008300003E0252B00F0A38025466B786C1C002B71
:10084000F7D1B4EB080A76D042465346594603988E
:10085000FFF790FF01306ED00B9B6A7853440B93E7
:10086000002A68D000234FF0FF3201340693CDE90F
:1008700008338DF85B301C93079205E0069A07FA5F
:1008800003F313432C4606932546052215F8011B56
:100890003046FFF72DFDAA46831B0028EED1069BAC
:1008A000D90644BF20228DF85B2021781A0744BF67
:1008B0002B228DF85B202A2966D1059A1168043213
:1008C00000290592C0F29D8009916178A51C2E290E
:1008D00073D0684C03222046FFF70AFD002800F081
:1008E0008680001B069B402404FA00F00343069315
:1008F00005F10108297860488DF830100622FFF7CD
:10090000F7FC002800F083805C4B002B72D005AB15
:1009100000935A465A4B039806A900F083F9814682
:10092000B9F1FF3F07D00B9B4B440B9398F8003075
:10093000002B7FF479AFBBF80C305B0618D40B9812
:100940001FB0BDE8F08F02F0F5FB464B9B457FF4EE
:1009500047AF039BD3F804B0BBF80C3018073FF542
:100960004EAF5946039801F0A5F900283FF44CAF6B
:100970004FF0FF30E4E7039BD3F808B03AE7B4EB5D
:10098000080A3FF46FAF5FE7A1F13002092A88BF80
:10099000A2469CD8099B01E02C460135297803EB3F
:1009A000830302EB4303A1F13002092AAA46F3D9DB
:1009B0002E2904F1020509938BD19AF801102A29F6
:1009C0002FD1059B9AF802101A6807920433002A67
:1009D00005930AF103050AF1020338DB254C0322D3
:1009E00020469A46FFF784FC00287FF47AAFA84699
:1009F00055467FE7059B073323F00703083305932C
:100A000091E7494243F00203099106935DE705AB84
:100A100000935A461A4B039806A900F031FC814610
:100A20007EE7A1F130020023092A079301D915E0DE
:100A30005546697803EB830302EB4303A1F13002CF
:100A4000092A05F1010AF3D90235079341E74FF06E
:100A5000FF329A4607923CE7444603E7AA4601352F
:100A600037E700BFC8520108A852010888520108A0
:100A7000086402081064020814640208250C0008C7
:100A80007507000810B4044C13460A460146206856
:100A90005DF8044BFFF794BE080000202DE9F047F5
:100AA00057EC106B84B0002F894692461946DDE959
:100AB0000D545EDB0023662D0B7018D0462D16D02A
:100AC00025F02003452B36D003AA02ABCDE9003236
:100AD00002210C9B4A4647EC106B01F0FFF9672D91
:100AE000804636D11AF0010F35D1039B1CE003AAD2
:100AF00002ABCDE9003203210C9B4A4647EC106B58
:100B000001F0ECF9804600EB090598F80030302B35
:100B100034D00C9B1B681D4430463946002200230C
:100B200004F072FAD0B12B46A3EB080340462360D1
:100B300004B0BDE8F08703A902AB09F10109CDE9D2
:100B400000314A460C9B022147EC106B01F0C6F9BC
:100B50008046472DC6D008EB0905DDE7039B9D4283
:100B6000E2D930215A1C03921970039BAB42F9D38E
:100B7000DAE707F100431F462D239CE700220023FC
:100B80003046394604F040FA0028C2D10C9AC9F127
:100B900001031360BFE700BFF0B400290446BABFE9
:100BA00049422D232B23092904F8022B82B04370DC
:100BB0002DDD0DF107063546194F01E015461946A2
:100BC00087FB0132CB17C3EBA20303EB8302A1EB3C
:100BD00042023032632905F8012C05F1FF32EDDCC9
:100BE0003033A91EDBB28E4202F8013C0BD92146FC
:100BF00001E012F8013B01F8013BB242F9D10DF1DD
:100C000009035D1B2C44201A02B0F0BC7047303140
:100C10003023041DC1708370201A02B0F0BC7047ED
:100C2000676666662DE9F04F8DB00C46DDF858809A
:100C300016461F46054602F0E1FC03680693184677
:100C400000F0DEFE00230A93D8F800300790073347
:100C500023F0070393ED007B08338DED047BD4F87C
:100C600000B094F818A0C8F80030DDE9042323F0A0
:100C700000499046104684ED127B49464FF0FF3202
:100C8000AF4B04F0F3F940B9404649464FF0FF320C
:100C9000AB4B04F0CDF900287BD0DDE9040102461E
:100CA0000B4604F0E3F9002840F035826168481CE7
:100CB0004BF480622CD0BAF1670F64D0BAF1470FC1
:100CC00061D0002322600AA8039309AB029000932D
:100CD000CDF804A00DF123039DED040B2846FFF78A
:100CE000DDFE8046BAF1650F099B33D8013B1946FA
:100CF000524604F150000993FFF74EFF0A9A131869
:100D0000012A8146236140F37E810133236133E070
:100D100006216160002322600AA8039309AB0290B8
:100D20000093CDF804A00DF123039DED040B28469C
:100D3000FFF7B4FE0AF0DF03472B8046D2D1099BB0
:100D4000D91C80F2E280AAF1020A5FFA8AFABAF1AB
:100D5000650FCBD9BAF1660F00F0DE800A9A9A428D
:100D600040F3E580002BD4BFC3F1020101210A4406
:100D70002261A3654FF000099DF823300BB32D23AA
:100D800084F843301DE0002940F0138101216160A7
:100D9000C0E7DDE904010022002304F03FF910B1AF
:100DA0002D2384F84330674867492BF0040203235E
:100DB0002260BAF1470F94BF8046884623614FF006
:100DC0000009009733460BAA2146284600F0C2F9D5
:100DD000013024D0236858052CD42369424631467B
:100DE0002846B84701301AD022680B98E36892076A
:100DF0001AD51A1A002A17DD04F119094FF0000854
:100E000004E0E3680B981A1A42450DDD01234A46B7
:100E100031462846B847013008F10108F1D14FF0BA
:100E2000FF300DB0BDE8F08F9842B8BF18460DB046
:100E3000BDE8F08FBAF1650F33D900220023D4E961
:100E4000120104F0E1F8002800F0828001233F4AFB
:100E500031462846B8470130E1D0DDE909239A42FE
:100E600002DB2268D107C0D5DDE9062331462846DA
:100E7000B8470130D3D00A9B012BB5DD04F11A0924
:100E80004FF0000803E00A9B013B4345ACDD012322
:100E90004A4631462846B847013008F10108F2D1E8
:100EA000BDE70A9A012A40F39A800123424631465F
:100EB0002846B8470130B2D0DDE90623314628463E
:100EC000B8470130ABD000220023D4E91201DDF88D
:100ED00028A004F099F8002800F09080BAF1010FE2
:100EE00040F3888004F11A0A4FF0000803E00A9BDF
:100EF000013B43457EDD0123524631462846B84733
:100F0000013008F10108F2D189E7626893423FF7A6
:100F10001AAF4FF0670A21E7002B626878DD236182
:100F2000002A00F0A68001321A44226121E72268DB
:100F30002361D2077FF51DAF5A1C226119E700BF5C
:100F4000FFFFEF7F1C640208206402082C64020883
:100F5000099B002B63DD0A9BD4F858A05345A8BF1A
:100F60005346002B9B4608DD424631462846B8478B
:100F700001303FF454AFD4F858A02BEAEB7BAAEB36
:100F80000B03002B40F3828004F11A034FF0000999
:100F90009A4604E0A36DA3EB0B024A4575DD0123DD
:100FA000524631462846B847013009F10109F1D1CE
:100FB00035E7002322600AA8039309AB029000934F
:100FC000CDF804A00DF123039DED040B2846FFF797
:100FD00065FD099BD91C8046FFF6B5AE95E7D9079C
:100FE0003FF563AF4246012331462846B8470130FA
:100FF0003FF415AF4B4604F15002F0E60AF1FF331F
:1010000008F10102F0E72268D2077FF5B5AE7CE671
:10101000002A33D12168C90730D40122A8E6012370
:10102000494A31462846B84701303FF4F8AEDDE979
:101030000923134324D0DDE9062331462846B84767
:1010400001303FF4ECAE099B002B79DA04F11A0A67
:101050004FF0000903E0099B5B424B4570DD012323
:10106000524631462846B847013009F10109F2D10C
:10107000D5E62168C8077FF57CAE54E7023277E6F3
:101080002268D3077FF5B1AED5E79A46DDE909219D
:101090008A4202DB2368D80709D5DDE906233146F9
:1010A0002846B84701303FF4BAAEDDE90921524580
:1010B000A1EB0203D4BFA1EB0A099946B9F1000FD5
:1010C0000BDD08EB0A024B4631462846B847013093
:1010D0003FF4A5AEDDE909239B1A29EAE979A3EBE0
:1010E0000903002B7FF780AE04F11A0A4FF00008C5
:1010F00007E0DDE909239B1AA3EB090343457FF7CA
:1011000073AE0123524631462846B847013008F1F4
:101110000108EED183E6059B0C490D4A002BBCBFAC
:101120002D2384F843302BF0040323600323BAF10A
:10113000470F94BF8846904623614FF0000940E670
:1011400042460A9B4BE600BF2C6402082464020856
:10115000286402082DE9F0470C4691460A6989681F
:10116000DDF820808A42B8BF0A46C9F8002094F80A
:10117000431006461F4611B10132C9F8002023680A
:1011800099065CD5D9F800200232C9F800202368FE
:1011900013F0060F19461DD1E1688A1A002AD8BF3C
:1011A000194617DD04F1190A002505E0E368D9F8AE
:1011B00000209B1AAB420CDD0123524639463046D3
:1011C000C047013005F10105F0D14FF0FF30BDE817
:1011D000F087216894F84330003318BF01238A0652
:1011E0000AD5E1185A1C302081F84300224494F8B3
:1011F000451082F84310023304F143023946304669
:10120000C0470130E1D02368A268216903F00603DA
:10121000042B1DD08A4226DD4FF00009521A91445A
:101220001A34002501E04D451DDA012322463946D6
:101230003046C047013005F10105F4D1C5E713F090
:10124000060F13D094F84330003318BF0123D3E7BF
:10125000D9F80000E3688A42A3EB000323EAE379AC
:10126000DCDC002BDCDC0020BDE8F087E168D9F88D
:1012700000208A1A002AD8BF194693DCAAE700BFCB
:101280002DE9F0430C46097E85B06E2906461746C7
:101290000C98984604F1430E6DD039D9732900F0AB
:1012A000F68044D9752900F00481782940F0118135
:1012B00078232268DFF858C284F8453001681506A3
:1012C00051F8043B016040F1A180D10744BF42F0D6
:1012D00020022260002B00F093801022002184F86D
:1012E00043106068A0600028C0F2C880216821F027
:1012F00004012160002B40F0A380002840F0C08052
:101300007546082A00F0AC80AEEB0503236141E08E
:10131000632900F0E5801AD8002938D0582940F018
:10132000D88084F845102268DFF8E8C1C6E76F2945
:1013300000F0BF80702940F0CC802268DFF8D0C177
:1013400042F020027823226084F84530B6E7642911
:1013500002D0692940F0BD8022680368110603F1BC
:10136000040557D5196805600B46002959DBDFF8DD
:10137000A4C10A22B5E70368226861691D1D0560E2
:1013800015061B6802D4500600F1BD8019600023C9
:1013900075462361CDF800803B4603AA21463046BE
:1013A000FFF7D8FE013020D02A462369394630465F
:1013B000C047013019D022680398E368920719D515
:1013C0001A1A002A16DD04F11909002504E0E36861
:1013D00003981A1AAA420DDD01234A4639463046BF
:1013E000C047013005F10105F1D14FF0FF3005B0E4
:1013F000BDE8F0839842B8BF184605B0BDE8F08359
:10140000226822F020022260102267E7500648BFBF
:101410009BB25AE75106A5D5B3F9003005601946CD
:10142000A3E76168A1602D200029C3F1000384F8BF
:10143000430002DB22F004022260DFF8D8C00A2257
:10144000754600E00B46B3FBF2F102FB113093420C
:101450001CF8000005F8010DF4D2082A7FF454AFFF
:101460002368DB077FF550AF626823699A423FF734
:101470004BAF302305F8013C013D45E7002BDFD1A0
:101480009CF8003084F8423004F1420539E70368E3
:101490006268191D01601D6800212846FEF728FFBB
:1014A000002832D0401B60602061002384F8433064
:1014B00070E72268036812F0800F03F104051AD068
:1014C0001B6805606F290CBF08220A22DFF844C0A0
:1014D00004E7012384F84210236104F14205E4E7A4
:1014E00003681A68191D0123016004F1420584F89C
:1014F00042202361D9E712F0400F0DBF1B68056041
:101500001B880560DEE7198041E76068CCE700BF13
:1015100044640208306402080EB410B5044683B077
:1015200008B1836963B106A803460190059AA168D2
:101530002046FFF745F903B0BDE8104003B07047FF
:1015400001F0F8FDEFE700BF0FB410B50B4B1C68BE
:1015500082B00CB1A36963B105A803460190049A57
:10156000A1682046FFF72CF902B0BDE8104004B096
:101570007047204601F0DEFDEEE700BF08000020C6
:1015800010B5044682B008B1836933B1A268204621
:1015900002B0BDE8104002F06DBE019101F0CAFD3D
:1015A0000199F3E738B50B4B1C6805460CB1A369EC
:1015B00033B12946A2682046BDE8384002F05ABE41
:1015C000204601F0B7FD2946A2682046BDE8384014
:1015D00002F050BE0800002083692DE9F0418046EA
:1015E0000E4633B384682F4B9C4230D02E4B9C4226
:1015F00039D02E4B9C4208BFD8F80C40A3891B075A
:101600002AD5236943B3013EA36816F8015F013B65
:10161000A3609DB3002B07DAA7699F4222462946A3
:10162000404623DC0A2D21D023685A1C22601D70FD
:10163000EAE701F07FFDD8F81830D8F80840002B11
:10164000D1D1404601F076FD164B9C42CED1D8F860
:101650000440A3891B07D4D42146404600F02AFB4E
:101660000028D0D006E0D8F80840C7E700F0C2FA5A
:101670000130C9D14FF0FF30BDE8F081002B09DA0D
:10168000224640460A2100F0B5FA0130F2D00A2085
:10169000BDE8F08123680A22591C21601A701046A7
:1016A000BDE8F081C8520108A8520108885201081B
:1016B000024B01461868FFF78FBF00BF08000020EB
:1016C00038B5074C002305460846236003F068F848
:1016D000431C00D038BD2368002BFBD02B6038BDE5
:1016E000CC9B00202DE9F043584C256883B004467C
:1016F0000F4690461E4615B1AB69002B62D0544B85
:101700009C4265D0534B9C4264D0534B9C4208BFD3
:10171000EC68B8F1020F06D0B8F1010F00F2938027
:10172000002EC0F290802146284601F0D9FB616B63
:1017300041B104F14403994202D02846FEF742FF2A
:1017400000236363B4F90C300022A26162601A06C0
:101750004FD423F44A6323F00303B8F1020FA381AB
:101760004ED001AB6A462146284601F04FFFA389BF
:101770001843A081002E2FD1009E3046FEF7A4FD15
:10178000074600284FD0A38943F08003A381AB69AB
:101790003BB3B4F90C302760B8F1010F04BF43F03C
:1017A0000103A3819BB213F00800C4E904761CD0A6
:1017B00013F0010033D000207642A661A06003B090
:1017C000BDE8F083284601F0B5FC214B9C4299D13D
:1017D0006C689EE7AC689CE7002FCED0AB69002B0D
:1017E000D7D1284601F0A6FCD3E7A06003B0BDE83E
:1017F000F08321692846FEF7E5FEB4F90C30A8E72E
:10180000002004F1470243F0020300250121A381D7
:10181000A5602260C4E9042103B0BDE8F083A6609E
:1018200003B0BDE8F083DDF80090B14506D048462E
:10183000FEF74AFD074608B14E46A4E7B4F90C305E
:101840004FF0FF30DDE74FF0FF30CFE7080000201A
:10185000C8520108A85201088852010810B5802119
:101860000446FEF705FF606440B1031F00227C3090
:1018700043F8042F8342FBD1002010BD4FF0FF300E
:1018800010BD00BF436C0BB100207047E6E700BFFE
:101890001F2970B5054608D8436C16460C464BB157
:1018A00053F8240043F8246070BD162202604FF004
:1018B000FF3070BDFFF7D2FF08B96B6CF0E74FF057
:1018C000FF3070BD1F2938B521D8426C05460C4643
:1018D0006AB152F8213053B1012B16D0591C10D0E7
:1018E0000025204642F824509847284638BD28460F
:1018F00000F070F8224601462846BDE8384000F066
:1019000055B816230360012038BD002038BD1623CA
:1019100003604FF0FF3038BD1F2921D838B5436C24
:1019200005460C4683B153F8242003EB84034AB1E7
:10193000511C10D0012A0CD0002520461D60904774
:10194000284638BD012038BDFFF788FF28B96B6CE9
:10195000E9E7032038BD022038BD4FF0FF3038BD25
:101960004FF0FF30704700BF024B01461868FFF789
:10197000A9BF00BF08000020024B0A4601461868B4
:10198000FFF786BF08000020034B1868436C0BB1BB
:101990000020704762E700BF08000020024B0146AC
:1019A0001868FFF7B9BF00BF0800002038B50B4624
:1019B000074C0546114618460023236002F0E8FE56
:1019C000431C00D038BD2368002BFBD02B6038BDF2
:1019D000CC9B002002F0D4BE0000000000000000FC
:1019E00000000000000000000000000000000000F7
:1019F00000000000000000000000000000000000E7
:101A000090F800F06DE9024520F007016FF0000C3E
:101A100010F0070491F820F040F049804FF00004E6
:101A20006FF00700D1E9002391F840F000F10800C1
:101A300082FA4CF2A4FA8CF283FA4CF3A2FA8CF3F9
:101A40004BBBD1E9022382FA4CF200F10800A4FA60
:101A50008CF283FA4CF3A2FA8CF3E3B9D1E90423B4
:101A600082FA4CF200F10800A4FA8CF283FA4CF3EB
:101A7000A2FA8CF37BB9D1E9062301F1200182FAA5
:101A80004CF200F10800A4FA8CF283FA4CF3A2FAAB
:101A90008CF3002BC6D0002A04BF04301A4612BAB9
:101AA000B2FA82F2FDE8024500EBD2007047D1E9BC
:101AB000002304F00305C4F100004FEAC50514F04B
:101AC000040F91F840F00CFA05F562EA05021CBF1C
:101AD00063EA050362464FF00004A9E7002A46D0F6
:101AE00040EA010313F00303F0B425D1032A23D9FC
:101AF00004680D68AC423CD1043A35D0A4F10135FC
:101B000025EA040414F0803F2ED1071D0D1D0DE0C1
:101B100057F8043B0E68A3F10134B34224EA0304EE
:101B200027D1043A20D014F0803F1DD1032A294642
:101B3000384605F10405EBD803780D789D4202F193
:101B4000FF360ED186B17BB1044602E082180BD07D
:101B500053B114F8013F11F8015FAB42A6EB040248
:101B6000F4D0581BF0BC70470020F0BC7047104602
:101B7000704703780D789D4202F1FF36E3D0F0E71D
:101B800070B440EA0104A30727D1032A25D90B46E4
:101B90000646194653F8045BA5F1013424EA05040E
:101BA00014F0803F06D1043A032A46F8045B194634
:101BB000EFD882B133460C7803F8014B551E74B14F
:101BC00032442E4405E011F8014FF51A03F8014B99
:101BD0002CB19A42F7D170BC70470646E9E7002D58
:101BE000F9D01D44002203F8012BAB42FBD170BC9D
:101BF000704700BFF8B50D461446064608B1836924
:101C000043B3254B9C422AD0244B9C4229D0244BE1
:101C10009C4208BFF468A389A269A2601A0722D572
:101C2000236903B322686169D31AEDB299422F4642
:101C300029DD0133A168501C0139A16020601570B5
:101C400062699A4216D0A389DB0701D50A2D11D00B
:101C50003846F8BD01F06EFA0F4B9C42D4D174683F
:101C6000D9E7B468D7E72146304600F023F838B901
:101C70002369D7E72146304601F032F90028E7D042
:101C80004FF0FF37E4E72146304601F029F90028FC
:101C9000F6D122680123CDE7C8520108A8520108F5
:101CA00088520108024B0A4601461868FFF7A2BF96
:101CB000080000203B4B70B51D6806460C460DB170
:101CC000AB69DBB1384B9C421ED0384B9C424AD0AA
:101CD000374B9C4208BFEC68B4F90C2093B219074B
:101CE00018D5206908B313F001022CD063690022D3
:101CF0005B42A361A26060B3002070BD284601F082
:101D000019FA294B9C42E0D16C68B4F90C2093B2CB
:101D10001907E6D4DD063CD5580726D4206942F0E1
:101D20000803A3819BB20028DDD103F42072B2F531
:101D3000007FD8D03046214601F096FCA389206967
:101D400013F00102D2D1990758BF6269A26000283E
:101D5000D2D1B4F90C301A06CFD543F04003A38199
:101D60004FF0FF3070BDAC68B6E7616B51B104F164
:101D70004403994204D03046FEF724FCB4F90C2009
:101D80000023636300232069636022F02402206043
:101D9000C5E742F04002092333604FF0FF30A281D3
:101DA00070BD00BF08000020C8520108A8520108F9
:101DB00088520108000000002DE9F04F03690F6907
:101DC000BB4283B0C0F28680013F01F1140600F1EE
:101DD000140A56F827305AF82720BC000133009423
:101DE00006EB04099A425444B2FBF3F801943AD347
:101DF00000252A46B646D4465EF8044BDCF800308F
:101E00001FFA84FB08FB0B554FEA154B240C08FB0B
:101E100004B4ADB2551BA2B2C2EB134215FA83F360
:101E200002EB23429BB243EA0243F1454FEA1445D9
:101E30004CF8043B4FEA2242DED2009B5AF80330B2
:101E40008BB9019A131F9A450CD252F8043C4BB936
:101E5000A2F1080302E01A68043B1AB99A4507F197
:101E6000FF37F8D30761044601F092FF00282DDB0D
:101E700008F101085046002356F8041B05688AB291
:101E80009A1A0B0C12FA85F2C3EB154303EB2243AB
:101E900092B242EA0342B14540F8042B4FEA234391
:101EA000EAD25AF827200AEB87037AB91A1F92451B
:101EB0000BD253F8042C42B9083B02E01A68043BE9
:101EC0001AB99A4507F1FF37F8D32761404603B0A6
:101ED000BDE8F08F002003B0BDE8F08F2DE9F04F92
:101EE00055EC104B97B0466A209F039182460A92A8
:101EF0000793CDE90045002E00F03683316851B1DB
:101F000072684A60012393408B6001F0A3FCDAF809
:101F1000243000221A602E1EB4BF012300233B6030
:101F2000774BBCBF26F000460196B34300F0B0806B
:101F30009DED007B0022002351EC170B8DED047BFF
:101F400003F062F8054678B1079A01231360219BDC
:101F5000002B00F023836B4B219A1360013B02930B
:101F6000029817B0BDE8F08FDDE9047814AA15A92E
:101F700048EC107B504602F03FF8340D834640F0A9
:101F80009D80DDE914542C4404F23243202B40F3AD
:101F9000CD83C3F140039E40009B04F2124023FA1C
:101FA00000F0304302F04EFDA1F1F873012102462A
:101FB000013C0E91104619460022534B02F004FCDE
:101FC00049A3D3E9002302F0B7FD49A3D3E90023D5
:101FD00002F0FCFB064620460F4602F043FD46A3F6
:101FE000D3E9002302F0A8FD02460B4630463946ED
:101FF00002F0ECFB06460F4603F04EF80022814645
:1020000000233046394603F009F8002840F0B98231
:102010002C1BB9F1160F04F1FF3800F299823B4BEB
:1020200003EBC903D3E90023DDE9040102F0F6FF65
:10203000002871D00023B8F1000F09F1FF390D938A
:10204000C0F28C8200230993B9F1000F6ADA099B70
:10205000CDF81890A3EB09030993C9F100030C9381
:10206000039BDAF82400092B4FF0000964D8052BF4
:1020700040F35A83043B03930024039B023B032B4E
:1020800000F26486DFE813F0660463043E0456043D
:10209000079A42F20F731360009BC6F31306334393
:1020A00018D1219B002B00F06086194B0293083356
:1020B000219A0298136017B0BDE8F08FC8F313019E
:1020C00041F07F530E953A46A4F2FF3443F4401397
:1020D000149D6FE7219B002B40F003840D4B02936E
:1020E0003EE700BFAFF3008061436F63A787D23F35
:1020F000B3C8608B288AC63FFB799F501344D33FF7
:102100000000F07F2D6402080000F83FF85201083B
:102110005864020864640208B8F1000FC0F2A38496
:102120000D90099000230C93039BCDF81890092B78
:10213000C844DAF824009AD9002301240393CDE996
:102140000A344FF0FF3308930021089B41600F933E
:10215000504601F03FFB0290002800F0FF85DAF8BE
:102160002430029A1A60089B0E2B00F20A81002C80
:1021700000F007810699002940F37784B14B01F004
:102180000F0203EBC20393ED007B0C11E2068DED11
:10219000107B40F11484AC4BDDE90401D3E9082342
:1021A00002F0F4FDCDE9000104F00F0403267CB138
:1021B000DDE91001A44DE30704D5D5E9002302F0C1
:1021C000BBFC0136641005F10805F4D1CDE910011E
:1021D000DDE90001DDE9102302F0D8FDCDE90001C1
:1021E0000D9B53B1DDE900450022984B204629465E
:1021F00002F014FF002840F03585304602F032FC32
:10220000DDE9002302F098FC914B002202F0DEFA97
:10221000089B0446A1F15075002B00F00884069B32
:102220001293089B1093DDE900673946304602F0AF
:1022300033FF009002F016FC02460B46304639464A
:1022400002F0C2FA7F4B009A0F461099064603EB44
:10225000C1030B9802993032CDE90045D5B24C1C30
:1022600053E90223002800F0A1840020794902F0FC
:102270008DFDDDE9002302F0A7FA029B32461D70B6
:102280003B46CDE9000102F0E7FE002840F0DE8485
:1022900032463B4600206D4902F096FA02460B4654
:1022A000DDE9000102F0D8FE002840F03D85109BDA
:1022B000012B62D0029ACDF840901344CDF84C80A7
:1022C000DDE90089CDF800B0D3469A460EE03246EB
:1022D0003B4600205D4902F077FA42464B4602F049
:1022E0009DFE002840F0FC8454453FD040464946BE
:1022F0000022594B02F020FC0022574B80468946B1
:102300003046394602F018FC0F46064602F0C4FE7D
:10231000054602F0A7FB02460B463046394602F05E
:1023200053FA3035EDB204F8015B42464B4606469F
:102330000F4602F073FE0028C9D0129BDA46013323
:10234000DDF800B006935946504601F083FA0023A9
:102350002370079B1A46069B1360219B002B3FF4BA
:10236000FFAD02981C6017B0BDE8F08FDA46DDF8CB
:102370004090DDF84C80DDF800B0DDE90434CDE9B3
:102380000034159B002BC0F2C680069A0E2A00F37B
:10239000C2802C4B03EBC203D3E900890A9B002BBC
:1023A00017DA089F002F14DC40F05A8300222B4BD1
:1023B0004046494602F0C0FBDDE9002302F042FE40
:1023C000002800F0D283089F3D460A9B029CDB4315
:1023D000DEE2DDE9004542464B462046294602F052
:1023E000D5FC02F059FE0646009002F03BFB424647
:1023F0004B4602F0A1FB02460B4620462946029CB2
:102400003546303502F0E0F9069E04F8015B089D80
:102410000136012D02460B46069652D000220E4B85
:1024200002F08AFB0022002306460F4602F0ECFD74
:10243000002888D1CDF800B00125DDF820B0CDF816
:102440000CA01AE0F8520108E85301080000F03F20
:1024500000001C400000E03F000024400000144049
:102460000022BF4B02F068FB0022002306460F4605
:1024700002F0CAFD002840F06D8342464B463046CC
:10248000394602F083FC02F007FE824602F0EAFAC7
:1024900042464B4602F050FB02460B463046394658
:1024A00002F092F901350AF13006AB4502460B46BF
:1024B00004F8016BD4D1DDF800B0CDF800A0DDF850
:1024C0000CA01046194602F081F942464B460646DA
:1024D0000F4602F0C1FD60B942464B4630463946D0
:1024E00002F092FD00283FF42EAF009BD9077FF544
:1024F0002AAF14F8015C029A631E04E09A4200F0CD
:10250000D78313F8015D392D03F10104F6D06A1C5D
:10251000D2B21A7017E70B9A002A45D0039A012A03
:1025200040F36382089B5E1E0C9BB342C0F2418263
:102530009E1B089B002BC0F21383099A14461A4471
:10254000984409920121504601F0A0FA05462EE078
:102550000123B8F1000F0D93BFF674ADC4F1010370
:1025600009934FF000086FE51020FDF7ADFECAF8A3
:102570002400002800F0DD83C0E901660660C66023
:10258000C9E4484602F06EFA32463B4602F03CFD92
:1025900000287FF43DAD09F1FF3939E5714B029315
:1025A000029817B0BDE8F08F0C9E099C0B9D002C83
:1025B0000CDDB8F1000F09DD4445099A2346A8BF98
:1025C0004346D21A0992E41AA8EB03080C9BD3B134
:1025D0000B9B002B00F07E81002E10DD2946324639
:1025E000504601F00FFB5A4601460546504601F0A1
:1025F00063FA59460746504601F02CF9BB460C9B3E
:102600009A1B40F068810121504601F03FFAB9F170
:10261000000F074600F39080039B012B40F3668177
:1026200000260120B9F1000F40F09180404410F0E5
:102630001F0077D0C0F12003042B40F39A83C0F130
:102640001C00099B0344099304448044099B002B0C
:1026500005DD59461A46504601F036FB8346B8F16F
:10266000000F05DD39464246504601F02DFB074676
:102670000D9B002B40F01381089B002B40F3FA8048
:102680000B9B002B7ED1069B01330693029CDDF849
:102690002080012607E0594600230A22504601F017
:1026A000FFF80136834639465846FFF785FBB045AB
:1026B00000F1300004F8010BEDDC03464FF0000997
:1026C000594601225046009301F0FEFA39468346EE
:1026D00001F05EFB002814F8012C40F37881631EA2
:1026E000029904E0994200F08D8113F8012D392AF6
:1026F00003F10104F6D001321A703946504601F058
:10270000A9F8002D3FF41FAEB9F1000F05D0A9457F
:1027100003D04946504601F09DF82946504601F045
:1027200099F810E61C208CE70124A6E4C3F12006EA
:10273000009B03FA06F035E401464A46504601F094
:1027400061FA039B012B074640F3B98100263B69E0
:1027500007EB8303186901F049F9C0F1200065E730
:10276000000024402C640208294600230A22504617
:1027700001F096F80F9B002B054640F3CC82CDF874
:1027800018800893002C00F30D81002E40F0CB81BF
:10279000A846009B0399029E03F001020B920A4394
:1027A0000A92089A731E1A44099239465846FFF74E
:1027B00003FB29460090584601F0EAFA424681465A
:1027C0003946504601F000FB009BC2680446303396
:1027D000002A41D101465846089301F0D9FA214612
:1027E0000490504601F036F8049A089B1AB90A99E9
:1027F000002900F07C82B9F1000F06F10104C0F25B
:102800007581039941EA09090B9951EA090100F020
:102810006D81002A00F3AB81099A3370B24200F057
:10282000B281594600230A22504601F039F8454545
:10283000834629464FF000034FF00A02504613D05A
:1028400001F02EF84146054600230A22504601F0C9
:1028500027F826468046A8E701465046049300F034
:10286000F9FF0122049BC6E701F01AF82646054647
:1028700080469AE7039B022B73DC0B9B002B81D1D4
:1028800039465846FFF798FA069A029C00F1300341
:102890000132069204F8013B4FF0000910E7394677
:1028A000584601F075FA0028BFF6E6AE59460023F7
:1028B0000A22504600F0F4FF069B03F1FF380B9B01
:1028C0008346002B7FF450AF0F9B002B40F31C82FC
:1028D0000893DBE60C9A5946504601F093F983467B
:1028E00091E6AC4B02930333FFF7E2BBDDE9001244
:1028F00000297FF495AEC2F31303002B00F0EA80A9
:10290000009E8EE601230B930A9D002D5ADD0F9544
:1029100008950021172D41607FF71AAC012204238E
:102920005B0003F11406AE42114602F10102F7D931
:1029300041600DE401230B930A9B069A13440F9305
:102940000133012B1D460893B8BF0125E1E70023A1
:102950000B93F1E700230B93D6E70F9B0893CDF879
:102960001880089B002B7FF430AD39460522504675
:1029700000F096FF01460746584601F009FA002884
:102980007FF723AD029C069B312204F8012B013313
:10299000013339465046069300F05CFF002D7FF46A
:1029A000BCAED0E429462246504601F08DF90546DA
:1029B000EBE60C9B0C96F31A99440026B9E5022627
:1029C000FFF7F5BB01230A930893FFF7BDBB03D1C3
:1029D000009BDB073FF583AE631E01E013F8012D7A
:1029E000302A03F10104F9D087E60E9A002A00F09C
:1029F000328103F23343099A0C9E14461A449844D8
:102A000009929FE5069A01320692029A31231370C9
:102A100073E6304602F026F8DDE9002302F08CF878
:102A200000225D4B01F0D2FE0446A1F15075002258
:102A30005A4BDDE9000101F0C7FE22462B4606464F
:102A40000F4602F009FB002840F08E80224605F177
:102A500000433046394602F0E1FA00283FF48DACDD
:102A600000273D46B1E40D9078E500F0F880069B24
:102A70005C424B4B04F00F0203EBC203D3E900238B
:102A8000DDE9040102F058F82411CDE9000100F05D
:102A9000E680444D00230226E70705D5D5E900234B
:102AA00002F04AF801360123641005F10805F3D15C
:102AB000002B3FF495ABCDE90001FFF791BB009BE4
:102AC000002B7FF443AEDDE90012C2F31303002BA9
:102AD0007FF43CAE344E1640002E3FF4A2AD099B6D
:102AE0000133099308F1010801269AE50699002AA5
:102AF00001F10101069112DD59460122504603936E
:102B000001F0E2F83946834601F042F90028039BC0
:102B100040F3E080392B00F0D280009B3133A9468E
:102B200033704546E9E56968504600F053FE0446B7
:102B3000002800F004812B6902339A0005F10C0192
:102B40000C30FDF755FC21460122504601F0BCF83F
:102B500080461EE6DDF800B0DDF80CA0FFF7F3BB01
:102B6000DDE908239C1AEDE400273D460AE7069AB2
:102B7000392B02F10102069200F0A1800133A9462F
:102B800033704546B9E5069A0132A9460692454694
:102B900096E500BF6464020800001C400000144079
:102BA000F8520108E85301080000F07FDDE9000158
:102BB00001F0C2FF029B1D70109B012BCDE90001AB
:102BC00023D0109B029ACDF840901344C1469846FA
:102BD0000022714B3046394601F0AEFF0F460646E3
:102BE00002F05AFA054601F03DFF303502460B4629
:102BF0003046394601F0E8FD04F8015B44450646DD
:102C00000F46E5D1C846DDF84090644B0022DDE96F
:102C1000000101F0DBFD32463B4602F0FFF90028DF
:102C200052D1DDE9002300205C4901F0CDFD3246A0
:102C30003B4602F011FA00283FF49FAB00E0144637
:102C400014F8013C302B04F1FF32F8D0129B013311
:102C50000693FFF778BB149BC3F13603CBE602263D
:102C6000FFF7BEBA089B002B3FF4D3AE0F9F002F97
:102C70007FF783AB0022484B2046294601F05CFFDA
:102C800004460D46701CCDE9004501F0EBFE2246DE
:102C90002B4601F051FF424B002201F097FD069BAD
:102CA0001097013B0446A1F150751293FFF7BBBA90
:102CB000069A0132069231221A70FFF744BB39227C
:102CC000A946327045460AE5129B0133069314F873
:102CD000015C10E47FF423AFDA077FF520AF19E73A
:102CE000129B0133DA460693DDF800B003E4069A3E
:102CF000392B02F10102069206F10104DFD0B9F18D
:102D0000000F3FF70AAF0AE7039B022B3FF725AE00
:102D1000CDF81880B4E5039B022B3FF71EAE0F9B46
:102D2000CDF8188008932DE5129B01330693FFF729
:102D3000E2BB02461B4B1C48EA2101F0B7FB0246EE
:102D40001A4B194840F2EA2101F0B0FB002444601C
:102D50002146504600F03EFD029078B9134B1248D0
:102D600000224FF4D57101F0A1FB114B0293FFF744
:102D7000F7B83FF46BACC0F13C0062E4DAF8243001
:102D8000029919604FF0FF32012308920A940F92C2
:102D90000B93FFF7F6BA00BF000024400000E03FAD
:102DA00000001C406864020880640208B4640208E1
:102DB000586402088B891A072DE9F0410C468046B9
:102DC00041D44A68002A59DDE66A002E53D0002219
:102DD000D8F80050216AC8F8002013F4805251D16D
:102DE00001234046B047431C5FD0A389E66A216AAD
:102DF0005F0705D56268636B801A0BB1236CC01A3C
:102E0000024600234046B047461C45D1D8F8003062
:102E1000B4F90C20002B55D01D2B01D0162B5AD104
:102E200023690022C4E90032616BC8F8005011B375
:102E300004F14403994202D04046FDF7C3FB002051
:102E40006063BDE8F0810E69AEB10D680E60990750
:102E50000CBF63690023AD1BA3600AE02B4632461A
:102E6000A76A216A4046B8470028A5EB000506443A
:102E70000ADD002DF2DC0020BDE8F0810A6C002A9A
:102E8000A2DCF8E7606DB3E7A38943F04003A381B8
:102E90004FF0FF30BDE8F0812269A3892260002253
:102EA0006260DA04C0D56065BEE7D8F80030002B58
:102EB0009BD01D2B0CD0162B0AD0A38943F04003C6
:102EC000A381D9E72169C4E90013D304ACD5EAE7AB
:102ED000C8F80050CFE742F04002A281CCE700BF23
:102EE0000B6923B310B5044682B008B18369BBB146
:102EF000104B994212D0104B994216D00F4B994269
:102F000008BFE168B1F90C302BB1204602B0BDE832
:102F10001040FFF74FBF002002B010BD6168F1E71D
:102F2000019100F007F90199E2E7A168EAE70020C2
:102F3000704700BFC8520108A85201088852010812
:102F400020B1054B01461868FFF7CABF034B04497F
:102F5000186800F0B9BA00BF0800002084520108C8
:102F6000E12E000800207047014900F0ADBA00BF13
:102F7000E12E00080020704770B54A1E682505FB49
:102F800002F50E4605F17401FDF772FB044640B1EF
:102F900000210C30666005F168022160A060FDF739
:102FA000C1FA204670BD00BF1E4B70B51D68AB69ED
:102FB000064643B34835D5E90134013B05D51EE04B
:102FC000013B5A1C04F1680419D0B4F90C20002A02
:102FD000F6D10025144B6566C4E90055A560C4E927
:102FE0000455A5612946E360082204F15C00FDF761
:102FF00099FAC4E90D55C4E91255204670BD2C68F4
:103000002CB12546D7E7284600F010F8D2E7042176
:103010003046FFF7B1FF044628600028F1D10C23A9
:103020003360EAE7845201080100FFFF2DE9F84F01
:10303000334B34491A68816290424FF00003C0E973
:103040001233036504BF012383610546FFF7ACFF1C
:1030500068602846FFF7A8FFA8602846FFF7A4FF8E
:103060006E68E86000240423F3607466C6E90044D7
:10307000B460C6E90444B461214606F15C0008224C
:10308000FDF750FADFF888B0AF68DFF888A0DFF806
:103090008890DFF888801C4BC6F83080C6E9086B42
:1030A000C6E90AA92146FB6008227C66C7E90044FC
:1030B000BC60C7E90444BC6107F15C00FDF732FA6B
:1030C000EE68124BC7F83080C7E9087BC7E90AA948
:1030D0002146F3607466C6E90044B460C6E904445E
:1030E000B46106F15C000822FDF71CFA0123C6E971
:1030F000086BC6E90AA9C6F83080AB61BDE8F88F55
:1031000084520108692F0008090001001200020022
:10311000F1430008194400085944000879440008A4
:10312000024B0349186800F0CFB900BF8452010870
:10313000E12E0008836903B978E77047704700BF44
:10314000704700BF704700BF704700BF024B034984
:10315000186800F093B900BF08000020652F000830
:10316000024B0349186800F089B900BF080000202D
:10317000752F00089368002B00F002812DE9F04FB5
:10318000B1F90C309BB20C46190783B082469046C9
:1031900035D522699AB313F00202D8F800603DD009
:1031A0000027D4F828B0D4F820C0DFF8CC923D46F0
:1031B0004D452B463A4628BF4B4661465046D5B151
:1031C000D847002840F3D280D8F808301B1A0744AB
:1031D0002D1AC8F80830002B00F0B780D4F820C0B2
:1031E000D4F828B04D452B463A4628BF4B46614699
:1031F0005046002DE4D1D6E900750836D8E72146BF
:103200005046FEF757FD002840F03081B4F90C30ED
:10321000D8F800609BB213F00202C1D113F001098B
:1032200040F0B080A76820684D46002D54D09A0524
:1032300040F1BC80AF42BB4600F2E78013F4906FD0
:103240002FD0D4E9041707EB4707A0EB010B07EBDE
:10325000D777681C7F105844B8423A4684BF074667
:103260003A465B0540F1E98011465046FDF700FA09
:10327000002800F0F5805A4621690190FDF7B8F862
:10328000A289019B22F4906242F08002A281A7EB06
:103290000B0203EB0B00676123612060A2602F46E5
:1032A000AB465A46494600F029FAA2682368D21B69
:1032B0005B442F46A26023600025D8F80830DB1B52
:1032C000B944C8F80830002B3FD0B4F90C30A768D7
:1032D00020689BB2002DAAD1D6E900950836A4E754
:1032E0000BF1080353E902679B460833002FF9D01E
:1032F0003A460A213046FCF7FBFF002853D0013044
:10330000A0EB06094B46D4E904122068BB4228BF53
:103310003B46884203D9A5681544AB4219DC9A4262
:103320007DDC1346A56A216A32465046A847051E31
:103330001CDDB9EB05096BD00120D8F808305B1B08
:103340002E447F1BC8F8083013BB002003B0BDE833
:10335000F08F31462A4600F0D1F923682B442360D0
:1033600021465046FFF7BCFD0028E2D0B4F90C30EE
:1033700043F040034FF0FF30A38103B0BDE8F08F6E
:103380000020704733469146104617464E469B46EE
:10339000002FA5D00028B5D13A460A213046FCF7C7
:1033A000A7FF0028ABD17B1C9946ACE72369834279
:1033B00015D36169A94212D82E4BA76A9D4294BFCA
:1033C0002B466FF000434A4693FBF1F3504601FB56
:1033D00003F3216AB847071EC8DDED1B6DE7AF4256
:1033E00028BF2F463A46494600F088F9A36822686C
:1033F000DB1B3A44A3602260002BEED121465046ED
:10340000FFF76EFD0028E8D0B0E72F46AB4648E74F
:1034100021465046FFF764FD00288ED0A6E71A46E5
:103420003146019300F06AF9019BA1682268C91A2C
:103430001A44A16022601D467BE7504600F0F4FE6E
:10344000034600287FF423AF21695046FDF7BAF800
:10345000B4F90C300C2223F08003CAF8002087E76F
:103460000C23CAF80030B4F90C3081E74FF0FF307C
:103470006CE700BFFEFFFF7F00FCFF7F2DE9F041FE
:1034800010F148071BD088460026D7E90154013DBA
:103490000FD4A389012B05F1FF3506D9B4F90E30FD
:1034A0000133204601D0C04706436B1C04F1680479
:1034B000EFD13F68002FE8D13046BDE8F0813E46AD
:1034C0003046BDE8F08100BF2DE9F84310F1480710
:1034D0001FD0884606464FF00009D7E90154013D48
:1034E00011D4A389012B05F1FF3508D9B4F90E30A9
:1034F00001332146304602D0C04749EA00096B1C1F
:1035000004F16804EDD13F68002FE6D14846BDE8DC
:10351000F883B9464846BDE8F88300BF10B50446B5
:1035200082B008B18369A3B1144B994218D0144BEF
:10353000994221D0134B994208BFE1684B68013B87
:10354000002B4B6012DB0B685A1C0A60187802B023
:1035500010BD0191FFF7EEFD0199084B9942E6D1AC
:1035600061684B68013B002B4B60ECDA204602B0EF
:10357000BDE8104000F004BFA168DFE7C8520108B1
:10358000A85201088852010838B5174B1D68044637
:103590000DB1AB699BB1154B9C4216D0144B9C42AC
:1035A0001FD0144B9C4208BFEC686368013B002BA2
:1035B000636010DB23685A1C2260187838BD2846E7
:1035C000FFF7B8FD094B9C42E8D16C686368013B8A
:1035D000002B6360EEDA21462846BDE8384000F053
:1035E000CFBEAC68E1E700BF08000020C852010868
:1035F000A852010888520108F0307047004870470F
:103600005C010020004870475C01002070B50C464A
:10361000B1F90E10002996B016461D4613DB6A4616
:1036200000F07AFF00280EDB019A02F47042A2F546
:103630000052B2FA82F252094FF4806300202A60ED
:10364000336016B070BDA38900221B062A6004D522
:1036500040230020336016B070BD4FF4806300201B
:10366000336016B070BD00BF8A8992070B4606D53D
:1036700001F1470201211A60C3E90421704770B5C6
:1036800082B001AB6A460C460646FFF7BFFF0099C1
:1036900005463046FCF7ECFFB4F90C3070B1164922
:1036A000B162019A0099206043F08003A381C4E9CC
:1036B00004018AB92B43A38102B070BD9A05FBD4E3
:1036C00023F0030304F1470243F002030121A38125
:1036D0002260C4E90421EFE73046B4F90E1000F08F
:1036E0002FFF10B9B4F90C30E4E7A38923F00303EA
:1036F00043F001031BB2DDE7692F00088842F0B4F4
:103700000DD98B1883420AD9841832B1224613F896
:10371000014D02F8014D9942F9D1F0BC70470F2AD2
:103720000ED80346541E002AF7D001340C44013B46
:1037300011F8012B03F8012FA142F9D1F0BC704719
:1037400040EA01039B073BD1A2F110073F0901F1B9
:10375000200606EB071601F1100300F1100453F8E0
:10376000105C44F8105C53F80C5C44F80C5C53F8A3
:10377000085C44F8085C53F8045C44F8045C1033BB
:10378000B34204F11004EAD17B1C1B0112F00C0FB0
:10379000194402F00F05034415D0043DAD0803EBB6
:1037A000850C1C1F0E4656F8047B44F8047F6445C4
:1037B000F9D10135AD002B44294402F00302B1E7F1
:1037C000541E0346B1E72A46ACE700BF704700BF6E
:1037D000704700BF70B5446A06460D465CB1E368A9
:1037E000A3B153F82500E8B1026843F8252000236F
:1037F000C0E9033370BD1020FCF766FD044670621B
:10380000E8B10023C0E901330360C3602122042131
:10381000304600F0FBFC736AE060DB68002BE0D10F
:10382000002070BD012101FA05F4621D30469200AE
:1038300000F0ECFC0028F3D0C0E90154D7E70246C1
:10384000024B0348662100F031FE00BF68640208A5
:10385000C864020830B5456A83B0044655B139B131
:10386000636A4A68DB6853F82200086043F8221054
:1038700003B030BD10200191FCF726FD0199606274
:1038800020B1C0E901550560C560E8E70246024B7A
:1038900002488A2100F00AFE68640208C86402082F
:1038A000F0B50C6983B00D46064601F1140C0027F3
:1038B000DCF8000081B202FB0133190C000C02FBA2
:1038C00000109BB2013703EB0043BC424CF8043BB1
:1038D0004FEA1043ECDC3BB1AA68A24207DD05EBDE
:1038E0008402013453612C61284603B0F0BD69683D
:1038F000019330460131FFF76DFF019B0746A0B1F0
:103900002A6901930232920005F10C010C30FCF798
:103910006FFD294630463D46FFF79CFF05EB8402CC
:10392000019B536101342C61DEE70246024B0348E0
:10393000B52100F0BBFD00BFB4640208C8640208F2
:103940002DE9F843264C089E1D46083384FB034CA2
:10395000092D4FEAE373904607460C46C3EB6C0211
:1039600036DD012300215B009A4201F10101FADCFE
:103970003846FFF72FFF68B30123B8F1090FC0E9FC
:10398000043613DC0A344FF0090845450CDDA5EB7D
:103990000805254414F8013B0146303B0A2238460D
:1039A000FFF77EFFA542F5D1BDE8F88304F10909D0
:1039B0004E46444416F8013B0146303B0A22384645
:1039C000FFF76EFFB442F5D1A8F108044C44DCE7E0
:1039D0000021CDE70246034B0348CE2100F066FDEF
:1039E000398EE338B4640208C8640208020C120479
:1039F0000346CAB90304102013F07F4F04BF1B0213
:103A0000083013F0704F04BF1B01043013F0404F17
:103A100004BF9B000230002B05DB13F0804F00F148
:103A2000010008BF202070470020E5E7036813F07D
:103A30000702014607D0DA0720D4980722D55B0891
:103A40000B600120704798B2B0B91B0C102013F026
:103A5000FF0F04BF1B0A08301A0704BF1B090430FC
:103A60009A0704BF9B080230DA0703D45B0800F111
:103A7000010005D00B6070471046E8E70020704752
:103A8000202070479B080B600220704710B50C4641
:103A90000121FFF79FFE024618B10123C0E904345B
:103AA00010BD034B03484FF4A07100F0FFFC00BFB2
:103AB000B4640208C86402082DE9F04F0E69176962
:103AC000BE4283B00C46154605DB3A462B463746C8
:103AD0000D4616461C46D5E9011307EB060843457B
:103AE000B8BF0131FFF776FE009000287FD0009B21
:103AF00003F1140A0AEB8809CA4505D2534600218E
:103B000043F8041B9945FBD804F1140E0EEB860B09
:103B100005F11403DE4503EB870753D2CDF804808B
:103B2000984605E0090C28D1F3450AF1040A47D963
:103B30005EF8041B8EB2002EF4D045465446002396
:103B400055F8041B20688AB21FFA80FC06FB02C2EB
:103B5000090C000C134406FB010202EB13429BB25A
:103B600043EA0243AF4244F8043B4FEA1243E7D82A
:103B700023605EF8041C090CD6D0DAF80030404609
:103B80001A4654464FF0000C0588120C01FB052222
:103B900094449BB243EA0C4344F8043B50F8043B82
:103BA00022681B0C95B201FB035303EB1C438742B5
:103BB0004FEA134CE8D8F34523600AF1040AB7D85A
:103BC000DDF80480B8F1000F0BDD59F8043CA9F1D1
:103BD00004091BB105E059F8043D13B9B8F1010817
:103BE000F9D10098C0F8108003B0BDE8F08F02460C
:103BF000024B034840F25D1100F058FCB464020827
:103C0000C86402082DE9F04312F0030383B01446A0
:103C100007462DD10E46A4101CD07A6A8AB3956847
:103C2000002D39D0E3074FF0000906D4641011D0FD
:103C3000286898B10546E307F8D531462A46384644
:103C4000FFF73AFF314680463846FFF703FE64101F
:103C50004646EDD1304603B0BDE8F0832A462946FA
:103C60003846FFF729FF2860C0F800900546E2E7D4
:103C7000013B124A52F823200023FFF711FE0646AB
:103C8000C9E71020FCF720FB0246786280B10023D0
:103C9000C0E901330360C36040F2712138460192EC
:103CA000FFF7F4FE019A0023906005460360B9E730
:103CB000034B04484FF4D77100F0F8FBE8520108B9
:103CC00068640208C86402082DE9F0470E690D46D1
:103CD0004FEA621AD1E901135644741C9C42914682
:103CE000074604DD5B009C4201F10101FADC384625
:103CF000FFF770FD804600283FD0BAF1000F00F1B9
:103D000014000EDD0AF1050A4FEA8A0A08EB0A01DF
:103D10000346002243F8042B8B42FBD1AAF1140A7C
:103D20005044296905F1140319F01F0903EB810CB4
:103D30001BD0C9F1200E0022196801FA09F11143C4
:103D400040F8041B53F8042B9C4522FA0EF2F3D8DA
:103D50000260002A18BF26463846C8F81060294677
:103D6000FFF778FD4046BDE8F087043853F8042B90
:103D700040F8042F9C45F9D8EEE70246024B034871
:103D800040F2D91100F092FBB4640208C864020842
:103D900030B40B6905460069C01A10D19B00143578
:103DA000143119442B4401E09D4208D253F8044DCC
:103DB00051F8042D9442F7D003D24FF0FF3030BCBD
:103DC0007047012030BC70472DE9F84316460B6957
:103DD0001269A3EB0208B8F1000F0D4667D19200FB
:103DE00001F1140706F11401BB18114401E09F42D0
:103DF00061D253F8042D51F8044DA242F7D050D3AC
:103E00006968FFF7E7FC00285FD02F693369C0F8C5
:103E10000C8006F11402143505EB870C02EB830EBF
:103E200000F11406002100E0264652F8044B55F834
:103E3000048B1FFA84F911FA88F3210CA3EB090310
:103E4000C1EB184101EB234134469BB243EA0143E5
:103E500096454FEA214144F8043BA846E4D8AC45D6
:103E600016D9264658F8042B11FA82F3191401EBDF
:103E700012419BB243EA0143C44546F8043B4FEA72
:103E80002141EFD80CF1FF36761B26F003062644BD
:103E900023B956F8043D013F002BFAD00761BDE875
:103EA000F8832B464FF0010835461E46A8E7F8DB9D
:103EB0004FF00008A4E70021FFF78CFC60B101225D
:103EC0000023C0E90423BDE8F8830246064B0748F7
:103ED0004FF4107100F0EAFA0246034B034840F237
:103EE000322100F0E3FA00BFB4640208C86402089B
:103EF000124B10EE902A1A40A2F15073002B04DDF1
:103F00000020194641EC100B70475B421B15132B28
:103F100007DC4FF40022002042FA03F141EC100BC1
:103F20007047143B1E2BDABF4FF0004222FA03F316
:103F300001230021184641EC100B70470000F07F70
:103F4000F8B5046900F1140606EB840454F8045C27
:103F50002846FFF74BFDC0F120030A280B60A4F1AF
:103F6000040131DD8E42A0F10B001AD254F8081C76
:103F700010B3C0F12007854021FA07F31D4345F037
:103F80007F53A4F10805AE4201FA00F043F4401358
:103F900003D254F80C1CF9400843024643EC102BA2
:103FA000F8BD40B105FA00F040F07F53002043F423
:103FB00040130246F2E7014645F07F5343F44013B5
:103FC0000A4643EC102BF8BD8E42C0F10B0738BFF8
:103FD00054F8081C25FA07FC00F115004CF07F533B
:103FE00034BFF940002105FA00F043F4401340EAE1
:103FF000010243EC102BF8BD2DE9F043884683B055
:104000000121154657EC106BFFF7E4FB044600282E
:1040100050D0C7F30A59C7F31303B9F1000F01D009
:1040200043F48013002E019325D068460096FFF7D5
:10403000FDFC00283AD0DDE90013C0F1200203FAAC
:1040400002F20A43C34001936261002B14BF0221B4
:104050000121A3612161B9F1000F17D0A9F2334901
:1040600009EB0003C0F13500C8F800302860204695
:1040700003B0BDE8F08301A8FFF7D8FC019B6361A2
:10408000012120302161B9F1000FE7D104EB810358
:10409000A0F23240C8F800001869FFF7A7FCC0EB97
:1040A00041102860204603B0BDE8F083DDE900231D
:1040B0006261CAE70246034B034840F20A3100F04E
:1040C000F5F900BFB4640208C86402082DE9F043A2
:1040D00083B0884669468146FFF732FF404601A912
:1040E00055EC104BFFF72CFFDDE90013D9F8102039
:1040F000D8F81000CB1A121A03EB4213002B57EC1E
:10410000106B0DDD05EB03594D4632463B4620460C
:10411000294600F03BFE41EC100B03B0BDE8F083F4
:10412000C3EB033307EB03510F46EEE71728D0B577
:1041300004460CDD0A490B4F0020002632463B4660
:1041400000F0FAFC013CF9D141EC100BD0BD064B5C
:1041500003EBC004D4E9040141EC100BD0BD00BF57
:104160000000F03F00002440E852010870B41469D8
:104170004E1E02F11403761103EB840101368B42CB
:1041800000EB86060CD2041F53F8045B44F8045F6E
:104190009942F9D88B1A153B23F0030304331844D2
:1041A000864204D9002340F8043B8642FBD870BC09
:1041B000704700BF03694A11934210B400F1140420
:1041C00010DA04EB83039C421ED253F8040C043B28
:1041D00018B115E053F8042D92B99C42FAD35DF85A
:1041E000044B704704EB8203EDDD11F01F01EAD0B0
:1041F00054F8220020FA01F202FA01F18842E2D0DA
:1042000001205DF8044B70470020E8E738B502FB59
:1042100001F42146FCF72CFA054618B1224600218C
:10422000FCF780F9284638BD09B3F8B51446CAB181
:1042300006460D4600F0CCF9A04202D32F46384680
:10424000F8BD21463046FCF713FA07460028F6D0A1
:1042500022462946FCF7CCF830462946FCF7B2F94D
:104260003846F8BD2746FCF7ADF93846F8BD11468B
:10427000FCF7FEB910B5044682B008B18369D3B12A
:10428000194B9A4220D0194B9A4225D0184B9A428A
:1042900008BFE2689368013B002B93601ADA9069CB
:1042A00083421BDBC8B20A2818D013685C1C146058
:1042B000197002B010BDCDE90012FEF73BFFDDE939
:1042C0000012094B9A42DED162689368013B002BD1
:1042D0009360E4DBC8B2E8E7A268DBE7204602B0FF
:1042E000BDE81040FDF786BCC8520108A85201087D
:1042F000885201081E4B70B51D6806460C460DB16C
:10430000AB69CBB11B4B9C421CD01B4B9C4225D0B4
:104310001A4B9C4208BFEC68A368013B002BA360CA
:1043200016DAA26993421BDBF0B20A2818D0236880
:104330005A1C22601E7070BD2846FEF7FBFE0D4B16
:104340009C42E2D16C68A368013B002BA360E8DBD0
:1043500023685A1C22601E70F0B270BDAC68DBE7A7
:10436000224631462846BDE87040FDF743BC00BFF9
:1043700008000020C8520108A8520108885201080C
:1043800038B50C46054608B18369B3B1114B9C4260
:1043900018D0114B9C4217D0104B9C4208BFEC68C0
:1043A0002846214600F03CF980B9D4E90023013BBE
:1043B000511CC4E90013107838BDFEF7BBFE054B55
:1043C0009C42E6D16C68EBE7AC68E9E74FF0FF3060
:1043D00038BD00BFC8520108A85201088852010820
:1043E000024B01461868FFF7CBBF00BF0800002052
:1043F00010B50C46B1F90E1000F0F2F8002803DBFE
:10440000636D0344636510BDA38923F48053A381C6
:1044100010BD00BF002070472DE9F0411646B1F9EC
:104420000C201F46D3050C460546B1F90E1009D4E1
:1044300022F48052A2813B4632462846BDE8F04134
:1044400000F01EB80022022300F08CF8B4F90C2012
:10445000B4F90E10ECE700BF10B50C46B1F90E1020
:1044600000F080F8A389421C0EBF23F4805343F46C
:1044700080536065A38110BDB1F90E1000F03AB809
:1044800070B50D46084C114606461A4628460023CC
:10449000236001F0BBF9431C00D070BD2368002BE2
:1044A000FBD0336070BD00BFCC9B002000B50A4C30
:1044B0002668054685B01C46F06852B1074B00914E
:1044C000CDE9013206492B462246FBF799FEFBF760
:1044D0007BFE044B1A46F2E708000020FC64020849
:1044E0000C6502084455010808B513460022FFF781
:1044F000DDFF00BF38B5074C0023054608462360A2
:1045000001F0CEF9431C00D038BD2368002BFBD04E
:104510002B6038BDCC9B002038B50B46074C0546B8
:10452000114618460023236001F0E6F9431C00D031
:1045300038BD2368002BFBD02B6038BDCC9B0020FE
:1045400038B5074C002305460846236001F052F9B0
:10455000431C00D038BD2368002BFBD02B6038BD36
:10456000CC9B002070B50D46084C114606461A46F5
:1045700028460023236001F09FF9431C00D070BD42
:104580002368002BFBD0336070BD00BFCC9B0020A4
:1045900010B4034CD4F8E440A4465DF8044B6047E3
:1045A0006C00002082B049B15AB16BB113780B6036
:1045B0001278101C18BF012002B0704701A9002A10
:1045C000F3D1104602B070476FF00100F4E700BF6E
:1045D00051F8043C181F002BBCBF0B58C018704783
:1045E00070B50D46084C114606461A46284600236B
:1045F000236001F069F9431C00D070BD2368002BD3
:10460000FBD0336070BD00BFCC9B0020838903F0DA
:104610000903092B01D000207047FEF791BC00BFB1
:10462000F8B50C46054610B18369002B2ED0434BDC
:104630009C4230D0424B9C422FD0424B9C4208BF00
:10464000EC68B4F90C2093B200219F06616061D43C
:104650005E0724D4D80660D5190744D442F004027A
:10466000A2812369002B4AD0B4F90C70BEB2B30703
:1046700028D12269226028466369656A216AA847B1
:1046800000286060C8BF00203EDDF8BDFEF752FD87
:104690002A4B9C42CED16C68D3E7AC68D1E7616B02
:1046A0000029DED004F14403994202D02846FBF7EA
:1046B00089FF236C636000206063002BD1D0E36B23
:1046C0002360F8BD204B214918680123A38106F01F
:1046D0000906FEF7D3FE092EA781CAD12146284636
:1046E000FEF768FBC5E721462846FEF7F9FB88B9C7
:1046F000B4F90C20A060A06122F00802AEE72146C8
:104700002846FEF7B1FFAFE7B4F90C300DD143F006
:104710002003A3814FF0FF30F8BD42F0400209238F
:104720002B604FF0FF30A281F8BD43F04003002220
:10473000A38162604FF0FF30F8BD00BFC85201088E
:10474000A852010888520108845201080D46000849
:1047500010B4034CD4F8E040A4465DF8044B604725
:104760006C00002049B1FF2A02D80A70012070476E
:104770008A2303604FF0FF3070470846704700BF40
:10478000024B58221A604FF0FF307047CC9B00203C
:10479000024B58221A604FF0FF307047CC9B00202C
:1047A000044A05491368002B08BF0B4618441060E3
:1047B0001846704730030020D09B0020FEE700BF62
:1047C00081F0004102E000BF83F0004330B54FEAC2
:1047D00041044FEA430594EA050F08BF90EA020F2F
:1047E0001FBF54EA000C55EA020C7FEA645C7FEAC2
:1047F000655C00F0E2804FEA5454D4EB5555B8BFE5
:104800006D420CDD2C4480EA020281EA030382EA55
:10481000000083EA010180EA020281EA0303362DE7
:1048200088BF30BD11F0004F4FEA01314FF4801CBA
:104830004CEA113102D0404261EB410113F0004FCC
:104840004FEA03334CEA133302D0524263EB430383
:1048500094EA050F00F0A780A4F10104D5F1200E21
:104860000DDB02FA0EFC22FA05F2801841F100017C
:1048700003FA0EF2801843FA05F359410EE0A5F150
:1048800020050EF1200E012A03FA0EFC28BF4CF081
:10489000020C43FA05F3C01851EBE37101F0004537
:1048A00007D54FF0000EDCF1000C7EEB00006EEB44
:1048B0000101B1F5801F1BD3B1F5001F0CD34908CE
:1048C0005FEA30004FEA3C0C04F101044FEA445225
:1048D00012F5800F80F09A80BCF1004F08BF5FEAAC
:1048E000500C50F1000041EB045141EA050130BD8C
:1048F0005FEA4C0C404141EB010111F4801FA4F12F
:104900000104E9D191F0000F04BF01460020B1FA83
:1049100081F308BF2033A3F10B03B3F120020CDABB
:104920000C3208DD02F1140CC2F10C0201FA0CF099
:1049300021FA02F10CE002F11402D8BFC2F1200CFE
:1049400001FA02F120FA0CFCDCBF41EA0C019040B4
:10495000E41AA2BF01EB0451294330BD6FEA0404FD
:104960001F3C1CDA0C340EDC04F11404C4F12002E8
:1049700020FA04F001FA02F340EA030021FA04F3FA
:1049800045EA030130BDC4F10C04C4F1200220FA51
:1049900002F001FA04F340EA0300294630BD21FA8F
:1049A00004F0294630BD94F0000F83F4801306BF55
:1049B00081F480110134013D4EE77FEA645C18BF49
:1049C0007FEA655C29D094EA050F08BF90EA020FE0
:1049D00005D054EA000C04BF1946104630BD91EAD8
:1049E000030F1EBF0021002030BD5FEA545C05D1DB
:1049F0004000494128BF41F0004130BD14F580041A
:104A00003CBF01F5801130BD01F0004545F0FE418D
:104A100041F470014FF0000030BD7FEA645C1ABFC2
:104A2000194610467FEA655C1CBF0B46024650EAF9
:104A3000013406BF52EA033591EA030F41F4002125
:104A400030BD00BF90F0000F04BF0021704730B5AB
:104A50004FF4806404F132044FF000054FF0000180
:104A600050E700BF90F0000F04BF0021704730B541
:104A70004FF4806404F1320410F0004548BF404216
:104A80004FF000013EE700BF42004FEAE2014FEA6B
:104A900031014FEA02701FBF12F07F4393F07F4F46
:104AA00081F06051704732F07F4208BF704793F049
:104AB0007F4F04BF41F40021704730B54FF460745C
:104AC00001F0004521F000411CE700BF50EA01025F
:104AD00008BF704730B54FF000050AE050EA010208
:104AE00008BF704730B511F0004502D5404261EB78
:104AF00041014FF4806404F132045FEA915C3FF4B9
:104B0000D8AE4FF003025FEADC0C18BF03325FEA55
:104B1000DC0C18BF033202EBDC02C2F1200300FA06
:104B200003FC20FA02F001FA03FE40EA0E0021FA2B
:104B300002F11444BDE600BF70B54FF0FF0C4CF419
:104B4000E06C1CEA11541DBF1CEA135594EA0C0FCB
:104B500095EA0C0F00F0DEF82C4481EA030621EA06
:104B60004C5123EA4C5350EA013518BF52EA033541
:104B700041F4801143F4801338D0A0FB02CE4FF0F3
:104B80000005E1FB02E506F00042E0FB03E54FF023
:104B90000006E1FB03569CF0000F18BF4EF0010E1B
:104BA000A4F1FF04B6F5007F64F5407404D25FEA17
:104BB0004E0E6D4146EB060642EAC62141EA5551CA
:104BC0004FEAC52040EA5E504FEACE2EB4F1FD0C0C
:104BD00088BFBCF5E06F1ED8BEF1004F08BF5FEA8A
:104BE000500E50F1000041EB045170BD06F000463C
:104BF00046EA010140EA020081EA0301B4EB5C04E9
:104C0000C2BFD4EB0C0541EA045170BD41F48011E0
:104C10004FF0000E013C00F3AB8014F1360FDEBF05
:104C2000002001F0004170BDC4F10004203C35DAE1
:104C30000C341BDC04F11404C4F1200500FA05F364
:104C400020FA04F001FA05F240EA020001F0004205
:104C500021F0004110EBD37021FA04F642EB06017B
:104C60005EEA430E08BF20EAD37070BDC4F10C04A5
:104C7000C4F1200500FA04F320FA05F001FA04F269
:104C800040EA020001F0004110EBD37041F1000155
:104C90005EEA430E08BF20EAD37070BDC4F1200560
:104CA00000FA05F24EEA020E20FA04F301FA05F2C8
:104CB00043EA020321FA04F001F0004121FA04F270
:104CC00020EA020000EBD3705EEA430E08BF20EA40
:104CD000D37070BD94F0000F0FD101F0004640007A
:104CE00041EB010111F4801F08BF013CF7D041EAFC
:104CF000060195F0000F18BF704703F00046520000
:104D000043EB030313F4801F08BF013DF7D043EAD0
:104D10000603704794EA0C0F0CEA135518BF95EA86
:104D20000C0F0CD050EA410618BF52EA4306D1D10D
:104D300081EA030101F000414FF0000070BD50EA2C
:104D4000410606BF1046194652EA430619D094EAB6
:104D50000C0F02D150EA013613D195EA0C0F05D1A0
:104D600052EA03361CBF104619460AD181EA0301F4
:104D700001F0004141F0FE4141F470014FF00000AC
:104D800070BD41F0FE4141F4780170BD70B54FF047
:104D9000FF0C4CF4E06C1CEA11541DBF1CEA1355C7
:104DA00094EA0C0F95EA0C0F00F0A7F8A4EB0504A9
:104DB00081EA030E52EA03354FEA013100F08880A0
:104DC0004FEA03334FF0805545EA131343EA126369
:104DD0004FEA022245EA111545EA10654FEA00261E
:104DE0000EF000419D4208BF964244F1FD0404F5D7
:104DF000407402D25B084FEA3202B61A65EB030533
:104E00005B084FEA32024FF480104FF4002CB6EBEF
:104E1000020E75EB030E22BFB61A754640EA0C006F
:104E20005B084FEA3202B6EB020E75EB030E22BFAF
:104E3000B61A754640EA5C005B084FEA3202B6EBF0
:104E4000020E75EB030E22BFB61A754640EA9C00AF
:104E50005B084FEA3202B6EB020E75EB030E22BF7F
:104E6000B61A754640EADC0055EA060E18D04FEA3D
:104E7000051545EA16754FEA06164FEAC30343EADD
:104E800052734FEAC2025FEA1C1CC0D111F4801FAA
:104E90000BD141EA00014FF000004FF0004CB6E7A3
:104EA00011F4801F04BF01430020B4F1FD0C88BF42
:104EB000BCF5E06F3FF6AFAEB5EB030C04BFB6EB4D
:104EC000020C5FEA500C50F1000041EB045170BD40
:104ED0000EF0004E4EEA113114EB5C04C2BFD4EB6D
:104EE0000C0541EA045170BD41F480114FF0000EF1
:104EF000013C90E645EA060E8DE60CEA135594EA6D
:104F00000C0F08BF95EA0C0F3FF43BAF94EA0C0F6F
:104F10000AD150EA01347FF434AF95EA0C0F7FF4E4
:104F200025AF104619462CE795EA0C0F06D152EA38
:104F300003353FF4FDAE1046194622E750EA41061C
:104F400018BF52EA43067FF4C5AE50EA41047FF42D
:104F50000DAF52EA43057FF4EBAE12E74FF0FF3C92
:104F600006E000BF4FF0010C02E000BF4FF0010C63
:104F70004DF804CD4FEA410C7FEA6C5C4FEA430CDC
:104F800018BF7FEA6C5C1BD001B050EA410C0CBF2B
:104F900052EA430C91EA030F02BF90EA020F00208D
:104FA000704710F1000F91EA030F58BF994208BFF4
:104FB00090422CBFD8176FEAE37040F001007047B1
:104FC0004FEA410C7FEA6C5C02D150EA013C07D108
:104FD0004FEA430C7FEA6C5CD6D152EA033CD3D053
:104FE0005DF8040B704700BF8446104662468C464D
:104FF0001946634600E000BF01B5FFF7B7FF002880
:1050000048BF10F1000F01BD4DF808EDFFF7F4FFA8
:105010000CBF012000205DF808FB00BF4DF808ED33
:10502000FFF7EAFF34BF012000205DF808FB00BF56
:105030004DF808EDFFF7E0FF94BF012000205DF878
:1050400008FB00BF4DF808EDFFF7CEFF94BF01202D
:1050500000205DF808FB00BF4DF808EDFFF7C4FF26
:1050600034BF012000205DF808FB00BF4FEA410C6F
:105070007FEA6C5C02D150EA013C0AD14FEA430C52
:105080007FEA6C5C02D152EA033C02D14FF000008F
:1050900070474FF0010070474FEA410212F50012CD
:1050A00015D211D56FF47873B3EB625212D94FEA6F
:1050B000C12343F0004343EA505311F0004F23FA59
:1050C00002F018BF404270474FF00000704750EAAE
:1050D000013005D111F0004008BF6FF0004070476B
:1050E0004FF00000704700BF53B94AB9002908BF0C
:1050F00000281CBF4FF0FF314FF0FF3000F074B9B3
:10510000ADF1080C6DE904CE00F006F8DDF804E01E
:10511000DDE9022304B070472DE9F047089E0446FC
:105120008846002B40F085808A42154648D9B2FA5D
:1051300082F24AB1C2F1200701FA02F320FA07F71E
:10514000954047EA030894404FEA154E230CB8FBFC
:10515000FEF71FFA85FC0EFB178843EA084307FB9E
:105160000CF1994209D9EB1807F1FF3080F0E38088
:10517000994240F2E080023F2B445B1AA4B2B3FB99
:10518000FEF00EFB103344EA034400FB0CFCA44584
:1051900009D92C1900F1FF3380F0CB80A44540F2EF
:1051A000C88002382C4440EA0740A4EB0C040027D6
:1051B0001EB1D4400023C6E900433946BDE8F0875C
:1051C000002A53D0B2FA82F2002A40F0B680491B7E
:1051D0004FEA154E1FFA85F80127B1FBFEFC230CA0
:1051E0000EFB1C1143EA014308FB0CF1994207D95D
:1051F000EB180CF1FF3002D2994200F2EC808446A9
:10520000591AA3B2B1FBFEF00EFB101443EA04449A
:1052100008FB00F8A04507D92C1900F1FF3302D292
:10522000A04500F2DC801846A4EB080440EA0C40DC
:10523000BEE78B4208D9002E78D00027C6E90001CE
:1052400038463946BDE8F087B3FA83F77FB98B4219
:1052500002D3824200F2BD80841A61EB0303012075
:105260009846002EA9D0C6E90048A6E7FFDEC7F1A0
:105270002005BB4022FA05FC4CEA030C01FA07F4B6
:1052800020FA05F821FA05F34FEA1C4E48EA040417
:10529000B3FBFEF9210C0EFB19331FFA8CF841EA1F
:1052A000034309FB08FA9A4502FA07F200FA07F1EC
:1052B0000BD91CEB030309F1FF3080F088809A457D
:1052C00040F28580A9F102096344A3EB0A03A4B26A
:1052D000B3FBFEF00EFB103344EA034400FB08F876
:1052E000A04508D91CEB040400F1FF336BD2A045A4
:1052F00069D90238644440EA0940A4EB0804A0FBE1
:1053000002894C45C6464B4654D351D0002E69D035
:10531000B1EB0E0264EB030404FA05F522FA07F37D
:10532000FC401D43C6E90054002746E73746304697
:1053300043E7184637E707461FE7C2F1200320FA84
:1053400003F7954001FA02F021FA03F34FEA154EF4
:105350003843010CB3FBFEF71FFA85F80EFB173339
:1053600041EA034107FB08F38B4204FA02F407D930
:10537000691807F1FF3C28D28B4226D9023F294405
:10538000CB1A81B2B3FBFEF00EFB103341EA0341AE
:1053900000FB08F38B4207D9691800F1FF3C10D2DB
:1053A0008B420ED902382944C91A40EA074714E74C
:1053B0004145ABD2B8EB020E69EB0C020138134643
:1053C000A4E76046F0E7184695E76746D8E78146C8
:1053D0007BE7384645E7ACF1020C2B4410E7023876
:1053E0002C4421E73746E8E6704700BFF8B503468E
:1053F00010461A4652F8207F56689568D4680760B0
:1054000046608560C460176956699569D46907610B
:1054100046618561C4610A46202100F062FCF8BD46
:10542000F0B5A5B00E4615461CA900F0F2FD00240B
:105430001F2C08DC24AB234413F8201C2548FCF760
:1054400083F80134F4E70A20FCF7ACF840F20120BD
:105450000FF00EFA07461CAA04A90FF08FFE2123B5
:1054600003934FF48173009304AB03AA05F1400149
:1054700038460FF0B7FB0024202C07DC2B1993F8DB
:1054800040101448FCF760F80134F5E70A20FCF7F7
:1054900089F814AB324620211CA800F0F5FB14ACAF
:1054A0000FCC28606960AA60EB600FCC286169614D
:1054B000AA61EB611CAC0FCC28626962AA62EB6244
:1054C0000FCC28636963AA63EB6338460FF07EFB59
:1054D00025B0F0BD4855010870B59CB00E46154684
:1054E00014A900F096FD4823139340F201200FF019
:1054F000BFF9044600230193074B1B680093334612
:1055000014AA03A90FF092FC03AB13AA2946204664
:105510000FF0DEFB1CB070BDDC63020808B501466D
:105520000148FCF711F808BD145501082DE9F041B8
:105530009CB00646FCF764FA024620213046FAF792
:10554000D7FE0446002524E001342378202BFBD02D
:105550003046FCF755FA3718A74220D002462021E2
:10556000601CFAF7C5FE8046B0B1012D16DCA8EB31
:105570000407781CFAF7A8FE1CAA02EB850242F881
:10558000080C0022C2553A462146FCF7F9FA0135CB
:105590004446002CD9D102E0B846E6E70135022D99
:1055A0000ED01C48FCF784F8002D05DC012D2DDD04
:1055B0001B98FAF791FE29E01A98FAF78DFEF5E7A5
:1055C0001A9D12AA29461448FFF710FF1B9E6A462F
:1055D00012A93046FFF780FF2022002112A8FAF717
:1055E000A1FF002407E01CAB234413F8701C0B48F8
:1055F000FBF7AAFF0134472CF5DD0A20FBF7D2FFA9
:105600003046FAF769FE2846FAF766FE1CB0BDE898
:10561000F08100BF50550108409A0020485501080C
:105620002DE9F04182B00646FCF7EAF90246202156
:105630003046FAF75DFE0446002524E00134237865
:10564000202BFBD03046FCF7DBF93718A74220D0DF
:1056500002462021601CFAF74BFE8046B0B1012DB6
:1056600016DCA8EB0407781CFAF72EFE02AA02EB60
:10567000850242F8080C0022C2553A462146FCF742
:105680007FFA01354446002CD9D102E0B846E6E75E
:105690000135022D0ED00F48FCF70AF8002D05DC6D
:1056A000012D14DD0198FAF717FE10E00098FAF7C3
:1056B00013FEF5E7019D009C074A21462846FFF7A7
:1056C000AFFE2846FAF708FE2046FAF705FE02B0BC
:1056D000BDE8F08150550108409A002010B50446FD
:1056E000FCF78EF9024620212046FAF701FE00E081
:1056F00001300378202BFBD0A04210D058B90024F1
:10570000202C0EDC094B234493F840100848FBF78B
:105710001BFF0134F4E70748FBF7CAFF04E000244D
:10572000EEE70A20FBF73EFF10BD00BF409A0020C5
:10573000485501085055010870B50546FCF760F959
:105740000446024620212846FAF7D2FD064660B1FB
:105750000024082C0CD8721B1B4B53F8241028462D
:10576000FCF7BCF920B10134F3E76619013EEFE71D
:10577000092C08D0082C1FD8DFE804F00B230F14E5
:105780001923232323001148FFF7C8FE4FF0FF34ED
:1057900018E02846FFF7C2FE14E02846FFF7C6FED1
:1057A00000240FE02846FFF73BFF00240AE02846CC
:1057B000FFF794FF002405E00548FFF7AFFE002443
:1057C00000E00024204670BDD8010020C855010823
:1057D000CC55010808B5054B1860054B1868002327
:1057E000022219468068FBF77DFF08BDA49A0020BD
:1057F00008000020022801D80120704708B5FAF7F8
:10580000EBFC09230360002008BD00002DE9F041F6
:1058100082B00138012837D80F46164600242546A5
:105820001CE0DFF878804FF0FF33A2B23946D8F899
:10583000000002F0CDFD0543EDB20D238DF80730D9
:105840004FF0FF3301220DF10701D8F8000002F0FC
:10585000BFFD0543EDB2361B00240134A64203DD33
:105860003B5D0A2BF9D1DCE74FF0FF33B2B239468A
:105870000A48006802F0ACFD054315F0FF0F0AD19D
:10588000304602B0BDE8F081FAF7A6FC09230360B8
:105890004FF0FF30F5E70520F3E700BFA49A0020A2
:1058A000022801D80020704708B5FAF795FC0923B3
:1058B00003604FF0FF3008BD08B5FAF78DFC0923EF
:1058C00003604FF0FF3008BD08B548B94FF0FF3313
:1058D00001220848006802F0EBFD40B9012008BD34
:1058E000FAF77AFC092303604FF0FF30F7E7052051
:1058F000F5E700BFA49A002008B5022804D84FF4A9
:1059000000534B60002008BDFAF766FC09230360D2
:10591000F8E7000070B58AB0002405940694079457
:10592000089409944FF0B043DA6C42F00402DA6450
:10593000DA6C02F004020492049ADA6C42F001027A
:10594000DA64DA6C02F001020392039ADA6C42F034
:105950000202DA64DA6C02F002020292029ADA6C53
:1059600042F00802DA64DB6C03F008030193019B48
:105970001D4E22462321304602F03AF80C230593AF
:1059800002250695079408940823099305A94FF06A
:10599000904001F069FF102305930694079405A930
:1059A000124801F061FF2323059301230693079416
:1059B000089405A9304601F057FF4FF4C0530593F2
:1059C0000695079408940A23099305A94FF090407F
:1059D00001F04AFF032305930694079405A90448A0
:1059E00001F042FF0AB070BD000400480008004802
:1059F000000C004830B5ADF5017D1F48FBF7A4FD54
:105A00004FF4007200216846FAF78CFD002416E07E
:105A1000FAF71EFC0DF80400013413E01748FBF7F9
:105A200093FD651E1DF805300D2B14D01448FBF7AF
:105A30003FFE3E20FBF7B6FD0025AC4215DCB4F579
:105A4000FF7FE5DD631E1DF803307F2BE9D1002CBD
:105A5000E4D0023CE2E70A20FBF7A4FD00240DF8A5
:105A600005406846FFF768FEE0E71DF80500FBF714
:105A700099FD0135E1E700BFD05501080456010842
:105A80000856010808B50268034B9A4200D008BDC9
:105A900002F0A0F8FBE700BF002C014072B6FEE761
:105AA00008B51548154B03604FF4E13343600023FC
:105AB0008360C36003610C2242618361C36103623E
:105AC0004362836202F0C2FD70B900210A4802F00D
:105AD00039FE58B90021084802F059FE40B906487D
